:020000040800F2
:1000000000000220F56C0008F50F0008F70F00084B
:10001000F90F0008FB0F0008FD0F000800000000AA
:10002000000000000000000000000000FF0F0008BA
:10003000011000080000000003100008051000086F
:10004000416D0008416D0008416D0008416D0008D8
:10005000416D0008416D0008AD110008416D0008B8
:10006000416D0008416D0008416D0008C15D000848
:10007000416D0008416D0008416D0008416D0008A8
:10008000416D0008416D0008416D0008416D000898
:10009000416D0008416D0008416D0008416D000888
:1000A000416D0008416D0008416D0008416D000878
:1000B000416D0008416D0008416D0008416D000868
:1000C000416D0008416D0008416D0008416D000858
:1000D000416D0008416D0008416D0008416D000848
:1000E000416D0008416D0008BD110008416D000818
:1000F000416D0008416D0008416D0008BD5D0008BC
:10010000416D0008416D0008416D0008C55D0008A3
:10011000416D0008416D0008416D0008416D000807
:10012000416D0008416D0008416D0008416D0008F7
:10013000416D0008416D0008416D0008416D0008E7
:10014000416D0008416D0008416D0008ED11000887
:10015000416D0008416D0008416D0008416D0008C7
:10016000416D0008416D0008416D0008416D0008B7
:10017000416D0008416D0008416D0008416D0008A7
:08018000416D0008416D00080B
:1001880010B5054C237833B9044810B10448AFF3CF
:1001980000800121217010BDD00500200000000062
:1001A8004C6E000808B5064B1BB106480649AFF36C
:1001B80000800648016811B1054A02B1904708BDA0
:1001C800000000004C6E0008D4050020CC0500207B
:1001D80000000000154B002B08BF134B9D46A3F5EC
:1001E800803A00218B460F461348144A121A06F02B
:1001F80009FB0F4B002B00D098470E4B002B00D06B
:1002080098470020002104460D4600200C49002292
:10021800002306F01FFA06F0ABFA2046294606F03E
:10022800DBFC06F06DFA00BF0000080000000000CB
:100238000000000000000000D0050020340D002060
:100248002967000882B0044B0190019A1A60186867
:100258000028FCD102B07047300600202DE9F04399
:10026800002591B0A64B002420461C705C7001F05C
:10027800B7F8012001F0B4F8022001F0B1F803202A
:1002880001F0AEF807A801F017FA08986422B0FB4D
:10029800F2F14E1EB6F1807F08D29A4F9A4A7E60DC
:1002A800F02382F82330BC6007243C60002001F072
:1002B800C7F8012001F0C4F8022001F0C1F80320BA
:1002C80001F0BEF88E4F787880BB01F0C7F80A209D
:1002D800FFF7B8FF012001F0C1F80A20FFF7B2FFCD
:1002E800022001F0BBF80A20FFF7ACFF013503201C
:1002F80001F0B4F8EDB20A20FFF7A4FF102DE1D108
:100308002C46002001F0AAF8012001F0A7F80220ED
:1003180001F0A4F8032001F0A1F80A20FFF792FFEA
:10032800631E002513F0FF04EBD1CBE7002001F09A
:10033800E3F80128FAD00024042001217C7001F0A0
:1003480095FA0820012101F06DFA03214FF470405D
:10035800022602908DF80D106C488DF80C6002A9E9
:100368008DF80E408DF80F4001F0E4FB0C21324669
:10037800664801F05FFC0D213246644801F05AFCE2
:100388000E213246614801F055FC0F2132465F4884
:1003980001F050FC5E4BADF818401A68ADF81240F9
:1003A8004FF47A60B2FBF0F6711E8BB240F2CF7256
:1003B80058487B8004A9ADF81030059201F032FD51
:1003C8000121544801F0A1FD60204FF47A71012603
:1003D800ADF82C000D914F48ADF838400BA9ADF899
:1003E8002E6001F0C0FD224621464A4801F0B2FFC6
:1003F8000821484801F004FF46480BA901F0ECFD2C
:1004080022460421434801F0A5FF0821414801F094
:10041800FFFE40480BA901F023FE22463D48082173
:1004280001F098FF3B48082101F0FCFE39480BA970
:1004380001F058FE224637480C2101F08BFF354861
:10044800082101F0F7FE3348314601F080FD2146CE
:100458002246304801F07EFF22462E48042101F052
:1004680079FF22462B48082101F074FF22460C210F
:10047800284801F06FFF28480723A04640248370CE
:10048800047080F8018080F8038080F8048005F00B
:1004980035FF1E20FFF7D6FE204C21483E70202253
:1004A8000C2102708170467006F071F820462921EF
:1004B800062205F0DBFF2078A2781A4B1A49247926
:1004C80018700A703C71194F194800973146194A3B
:1004D800194B03F045FE0A4E70780028FBD0002027
:1004E80001F00AF80128FAD00021144802F041FA74
:1004F8000F4804F076FE0E4804F0DEFCB2E600BFBA
:10050800EC05002010E000E000ED00E0000C0240E7
:100518000C00002000080040280600202C0C0020B9
:100528003506002038060020340600205C00002034
:100538003C06002040000020380100200030014027
:10054800034B1A6812B11868411E1960704700BF42
:1005580030060020022108B5582003F07DFC06482B
:100568004FF0553103F0B0FB022000F077FF052073
:10057800FFF768FEF8E700BFFCFF0F0808B5034B5C
:10058800187808B9FFF7E6FFFEE700BFEC05002082
:1005980013B52A4800210322402341708270C1709C
:1005A8000171037005F0AAFE254820240C2304706D
:1005B80001248370447005F0EAFF1E20FFF742FE15
:1005C8000DF107000F21224605F050FF9DF80700A6
:1005D8003B2801D0FFF7BEFF1A4A4FF4FA711160A9
:1005E800184B1868B0B1184C29210422204605F090
:1005F8003DFF94F90020A178002AB8BF5242D3B237
:100608000F2B0AD848B20028B8BF4042C1B20F2900
:1006180003D8E5E7FFF79EFF0FE0002000F002FF98
:10062800002000F069FF0028FAD0002000F064FFE5
:100638000128FAD0002000F003FF1CBD2806002086
:1006480035060020300600202C0C00202DE9F3414F
:100658000D20012101F0E6F80024012520270226BB
:10066800AA48009769468DF804508DF806408DF821
:1006780007408DF8056001F05DFA3946A34801F09E
:10068800CCFAA348009569464FF400778DF80450DA
:100698008DF806408DF807408DF8056001F04AFA9C
:1006A8009C48009769468DF804408DF806408DF8FF
:1006B80007408DF8056001F03DFA2946944801F09D
:1006C800ACFA2846FFF7BEFD9248394601F091FA88
:1006D80008B9FFF73FFF022369464FF480658DF89C
:1006E80004408DF806408B488DF8053001240095AC
:1006F8008DF8074001F01EFA2046FFF7A3FD854854
:10070800294601F076FA08B9FFF724FF804801214D
:1007180001F081FA4FF4C05001240025009002270F
:100728007C488DF8045069464FF400768DF80650E1
:100738008DF807408DF8057001F0FCF975480096B2
:1007480069468DF804408DF806508DF807408DF8FD
:10075800057001F0EFF931466E4801F05EFA204667
:10076800FFF770FD6B484FF4006101F042FA10B9D1
:10077800FFF7F0FE06E067484FF4805101F039FAC0
:100788000028F5D0012500244FF480574FF00208C7
:1007980060488DF8075069464FF4006600978DF859
:1007A80004408DF806408DF8058001F0C3F95948DA
:1007B8008DF8045069468DF8075000968DF806406C
:1007C8008DF8058001F0B6F93146524801F025FA56
:1007D8002846FFF737FD4F48394601F00AFA254603
:1007E80008B9FFF7B7FE012402274A480096694670
:1007F8004FF480568DF804508DF806508DF8074058
:100808008DF8057001F096F94248009669468DF812
:1008180004408DF806508DF807408DF8057001F0FA
:1008280089F931463B4801F0F8F92046FFF70AFDFF
:1008380038484FF4006101F0DCF908B9FFF78AFE87
:1008480002214FF400758DF804408DF8051000243E
:100858003048009569468DF806408DF8074001F04C
:1008680069F92C48294601F0D6F9204600F0DAFD4E
:10087800002000F041FE0028FAD0002000F03CFEE5
:100888000028FAD100F0DCFD22484FF4007101F095
:10089800C4F91E48202101F0BEF91E484FF48061BA
:1008A80001F0A7F908B1FFF755FE4FF4C052002632
:1008B800022518480092694601244FF400778DF804
:1008C80004608DF806608DF807508DF8055001F02A
:1008D80031F91048009769468DF804408DF8066094
:1008E8008DF807408DF8055001F024F9394609487C
:1008F80001F091F92046FFF7A5FC06484FF4006186
:1009080001F077F940B9FFF725FE0CE0000C024032
:1009180000080240000002404E484FF4805101F0A8
:1009280068F90028EFD04FF4905300260225494873
:100938000093694601244FF400678DF804608DF830
:1009480006608DF807508DF8055001F0F3F841481E
:10095800009769468DF804408DF806608DF80740C9
:100968008DF8055001F0E6F839463A4801F053F998
:100978002046FFF767FC37484FF4007101F039F95A
:1009880010B9FFF7E7FD06E032484FF4805101F057
:1009980030F90028F5D04FF4206000260225009099
:1009A80069462C488DF8046001244FF480578DF86F
:1009B80006608DF807508DF8055001F0BBF8254802
:1009C800009769468DF804408DF806608DF8074059
:1009D8008DF8055001F0AEF839461E4801F01BF9B4
:1009E8002046FFF72FFC1B484FF4007101F001F976
:1009F80010B9FFF7AFFD06E016484FF4006101F0AB
:100A0800F8F80028F5D04FF4C051002502240091D1
:100A180010488DF8045069464FF400768DF806505A
:100A28008DF807408DF8054001F084F801226946E9
:100A3800084800968DF804208DF806508DF8072098
:100A48008DF8054001F076F80248314601F0E5F8E6
:100A5800BDE8FC81000002402DE9F3414FF48070AD
:100A6800012100F00FFF01214FF4007000F00AFF90
:100A7800012005F04FF8022057214BF6803205F08F
:100A880031FA08B1FFF766FD984D9948994F00244F
:100A98004FF440334FF470614360C1600460846078
:100AA8003C7002F0F7F8284602F0EAF84FF00070C0
:100AB80001262860294690482C716C71AC602C6125
:100AC8002E7502F0B6F829468C4802F0B2F80325D4
:100AD80004224FF002088A48009269468DF80740C0
:100AE8008DF805808DF8045001F024F80823844817
:100AF8000093694601F01EF87F487C8041463246E3
:100B08002B46BC8002F012F932462B467B48294618
:100B180002F00CF97848314602F0D6F831467748A9
:100B280002F0D2F877494FF4FA740C6075480468FB
:100B3800002C4ED0704802F047F96F48022102F0AD
:100B480019FA0028F9D06C4802F06AF96E4A108048
:100B58006A4802F039F96948022102F00BFA0028C4
:100B6800F9D06648684C02F05BF9684B1880218818
:100B780088B296280DD91A8893B2092B09D85D4CEA
:100B8800618888B2B0F5FA7F03D06288531C99B2A5
:100B980061805D4C208882B2092A0ED85B4B198887
:100BA8008CB2962C09D95348828893B2B3F5FA7F50
:100BB80003D081884C1CA2B282804E48438899B2E7
:100BC800B1F5FA7FB2D18488A2B2B2F5FA7FADD17D
:100BD80001244948002102F077F84848002102F032
:100BE80073F80CB9FFF7B6FC04F0E2FF022004F03A
:100BF80091FF022064214BF6803205F073F908B1A9
:100C0800FFF7A8FC3B48002301244380047083803D
:100C18002146394802F058F82146384802F054F87D
:100C2800384A4FF4FA71116036480368002B4ED0E9
:100C3800314802F0C9F83048022102F09BF9002837
:100C4800F9D02D4802F0ECF82F4908802B4802F023
:100C5800BBF82A48022102F08DF90028F9D027486C
:100C680002F0DEF8294B284A1880108881B2AA2998
:100C78000DD91B889AB2AA2A09D91E4841888BB275
:100C8800B3F5FA7F03D04288511C8BB243801E48CB
:100C9800028891B209290ED81C4B188882B2092AF9
:100CA80009D814498B8898B2B0F5FA7F03D08A889E
:100CB800531C98B288800F494A8893B2B3F5FA7FDB
:100CC800B2D1888881B2B1F5FA7FADD101E0FFF7E2
:100CD80041FC002000F0A6FB002000F00DFC0028DD
:100CE800FAD0002000F0ACFBBDE8FC81380C0020F5
:100CF800600C0020F2050020002001400021014086
:100D08000000024030060020340C0020700C002047
:100D180070B54FF4804086B0012100F0A7FD06AD04
:100D28000620012100F07EFD4FF48060022300249C
:100D3800012645F8180D69462C488DF804308DF8C1
:100D480006408DF807608DF8056000F0F3FE052277
:100D580026480A2100F06EFF0821009124486946C0
:100D680000F0E8FE03210522214800F063FF214836
:100D780001F00AFD4FF440704FF47A421023ADF8A9
:100D8800080002A91B480492ADF80A30ADF80C40DF
:100D9800ADF81440ADF80E4001F06DFD3146154830
:100DA80001F0F3FD0A20FFF74DFA134A4FF4FA71E8
:100DB8001160114B1868A8B10E48012101F08DFE91
:100DC80018B90D490A68002AF6D10A4801F04CFE04
:100DD8004FF6FF73984201D10134E4B21D2CE8D9D3
:100DE8001E2C01D0FFF7B6FB06B070BD0004024010
:100DF8000008024000380040300600207047704765
:100E080010B5154B154A1978D1B9DC8854B9198928
:100E180032F811004A1C91B2302914BF19811C8183
:100E280001210AE00E4B1C8832F81400621C92B2B1
:100E3800302A14BF1A8019800021074BD98010BDB1
:100E4800198932F811004A1C91B2302908BF0021D3
:100E580080F40040198110BDF2050020486D00089B
:100E680004000020FEE7FEE73C4B1A6842F0010050
:100E7800002218609A60196821F0847020F480318B
:100E8800374819605860196882B021F480201860CA
:100E9800DA60009201921A6842F4803119602F4B8F
:100EA800186800F4003201920099481C0090019AD9
:100EB8001AB90099B1F5A04FF1D11B6813F40030AD
:100EC80018BF01200190019A012A0CD02348254B14
:100ED800826822F400018160C0F88430026842F020
:100EE8008061016030E01D4B1F4A196C41F0805051
:100EF8001864116841F4404010609A689A609968D3
:100F080041F4004098609A68184842F4A0519960EA
:100F180058601A6842F0807119601A680F48910188
:100F2800FBD5134B40F205611960826822F003017A
:100F38008160836843F0020282600848816801F09A
:100F48000C03082BF9D1C1E703681A01FCD5094A3B
:100F58004FF00060906002B0704700BF0038024058
:100F68001030002400300050007000400854400742
:100F7800003C024000ED00E0184B194A996801F066
:100F88000C00042803D0082803D0164B19E0164B90
:100F980017E059685A6811F4800F596814BF124B4A
:100FA800104B02F03F00B3FBF0F30C48C1F388127A
:100FB80041685343C1F30142501C4100084AB3FB46
:100FC800F1F3064813608168054BC1F303129818C2
:100FD8001A68017922FA01F21A6070470038024053
:100FE8000C0000200024F40000127A007047FEE78D
:100FF800FEE7FEE7FEE770477047704770B5624B43
:10100800187818B9BDE87040FFF79ABA5F49604E82
:1010180091F902300022981C7270B27001DA072030
:1010280002E0022B01DDF920707091F900108A1C92
:10103800574A02DA0723B37003E0022901DDF926D3
:101048009670507810B952498A7822B1514850495F
:10105800042204F0B3FB4E4E3379581CC1B20A295E
:10106800317140F08F80494C4B48002529462A466B
:101078002570A57001F06EF9474804212A4601F051
:1010880069F9454808212A4601F064F942480C21CB
:101098002A4601F05FF920462921062205F0E6F9E3
:1010A8003E4B22781878111A3D4AA078CBB21178B5
:1010B8002370401AC2B250B25BB20028B8BF404297
:1010C80083EAE371A1EBE371A270C2B2C8B28242B3
:1010D80038BF024672717179002950D002330CDA98
:1010E8002D480C21012201F035F973792A484FF473
:1010F8007A7292FBF3F101F05DF8244890F9001040
:1011080002290DDD24480421012201F023F9204B96
:1011180021485A794FF47A7191FBF2F101F046F8BF
:101128001A4890F90230022B0DDD1B4800210122DC
:1011380001F010F9164A184853794FF47A7191FB67
:10114800F3F101F031F8114890F90220931C0DDAFF
:1011580011480821012201F0FDF80D4B0E485A797B
:101168004FF47A7191FBF2F101F022F808484379C3
:10117800094840F2CF7292FBF3F100F0A7FE044851
:101188000021017170BD00BFEC0500202C0C00206F
:10119800FE0500203C06002000080040380600201C
:1011A80034060020024B0120187001F02FBD00BF4B
:1011B800ED05002010B5094CA37A4BB10848026927
:1011C80022F006010161FFF74FFE204603F064FE9E
:1011D8004FF48020BDE8104001F018BD3C06002007
:1011E80000ED00E0014804F029B800BF3C060020EB
:1011F800F7B50120294D014600F014FB02204FF4F9
:10120800D853002603278DF8040069462846009322
:101218008DF805708DF806608DF8076000F08AFC7F
:10122800284608210A2200F005FD284609210A223D
:1012380000F000FD28460B210A2200F0FBFC0A22E0
:1012480028460C2100F0F6FC4FF48061012400913F
:10125800284669468DF806408DF807408DF80570D8
:1012680000F068FC0A210A46284600F0E3FC214603
:101278004FF4804000F006FB8020214600F0DEFAA3
:1012880021464FF0805000F02DFB3046214600F0FB
:10129800F5F8204601F0BAFCFEBD00BF0000024090
:1012A80007B54FF4C06002F00DFE012043238DF80E
:1012B800050003228DF8070001A88DF804308DF889
:1012C800062002F009FE0EBD782358430722B0FB22
:1012D800F2F0002101318142FCD970474FF47A7352
:1012E8005843FFF7F1BF00BF12230B800048704737
:1012F8002000002004230B800048704732000020A3
:1013080010B5044C04480A46214603F08DF92046DE
:1013180010BD00BF760C0020DC6D000810B5044C31
:1013280004480A46214603F07FF9204610BD00BF55
:10133800760C0020EF6D000810B5044C04480A46EE
:10134800214603F071F9204610BD00BF760C00203D
:10135800FD6D000808B50A4608B9044800E00448CD
:10136800044903F061F9034808BD00BF086E00088E
:10137800156E0008760C002008B50A4608B904481E
:1013880000E00448044903F04FF9034808BD00BFD2
:10139800226E0008366E0008760C002070477047F1
:1013A80070477047704770470A4B1A681820B2FB9D
:1013B800F0F14A1EB2F1807F0AD2074B07495A6002
:1013C800F02081F82300002207209A6018607047F7
:1013D800FEE700BF0C00002010E000E000ED00E098
:1013E80037B50E4D044655F8200005EB440501219C
:1013F80000F018FA2B8A0093094B012002218DF87E
:10140800040000228DF807008DF8051053F8240019
:101418008DF80620694600F08DFB3EBDA86D0008DA
:1014280078000020044B054A53F8201002EB4000D6
:10143800038A0B83704700BF78000020A86D00085E
:10144800044B054A53F8201002EB4000038A4B83F3
:10145800704700BF78000020A86D00080549064BBA
:1014680053F8203001EB40005A69018A4A405A611A
:10147800704700BFA86D00087800002070B50646C8
:10148800012086B00D46014600F0CCF901214FF449
:10149800804000F0F7F9174806A900EB86060123FB
:1014A800002441F8103D30698DF80C408DF80F404C
:1014B80000F040FB012D1BD12046214601F08EFD96
:1014C800082104A804958DF814408DF815108DF89E
:1014D800165001F037FB0F23062201A88DF80420CF
:1014E8008DF805308DF806308DF8075002F0F4FCC1
:1014F80006B070BD7800002008B5044B03EB8000EF
:101508000121006900F075FB08BD00BF78000020CC
:101518000E4B1A6842F00100002218609A601968A0
:1015280021F0A85020F41021196009480949586091
:1015380001F18060C3F88410C3F88800196821F4A9
:1015480080201860DA60C3F88C20704700380240A9
:101558001030002400300020024B00221A7018704E
:10156800704700BF02380240034B1A6822F0F801A6
:1015780041EAC0001860704700380240014B18600B
:10158800704700BF00004742064B002201281A702E
:101598001A7004D0042804D10520187001E01870CE
:1015A8007047704770380240014B1860704700BFA1
:1015B800800E474210B50143029C41EA82125B0843
:1015C80042EA0460591E024A40EA0144546010BDD0
:1015D80000380240014B1860704700BF6000474266
:1015E8008001034B40EA0171C3F88410704700BFC3
:1015F80000380240014B1860704700BF680047423E
:10160800800140EA0161034B41EA0272C3F8882075
:10161800704700BF00380240014B1860704700BF98
:1016280070004742014B1860704700BF4C004742AA
:10163800034B9A6822F0EC621043014399607047AB
:1016480000380240034B9A6822F078421043014365
:101658009960704700380240034B9A6822F00301F2
:1016680008439860704700BF00380240024B9868F2
:1016780000F00C00704700BF00380240034B9A6826
:1016880022F0F00108439860704700BF003802401C
:10169800034B9A6822F4E05108439860704700BFF2
:1016A80000380240034B9A6822F4604141EAC000C6
:1016B80098607047003802401E4B9A6802F00C018F
:1016C800042910B503D0082903D01B4B18E01B4B85
:1016D80016E05C685A68596814F4800F14BF174BF9
:1016E800154B02F03F02B3FBF2F3124AC1F3881420
:1016F80051686343C1F30144621C5100B3FBF1F329
:101708000C4903608C680E4AC4F30313D45C036865
:1017180023FA04F343608C68C4F38224145D23FA2B
:1017280004F484608968C1F34231525C23FA02F3FD
:10173800C36010BD003802400024F40000127A0093
:101748008C00002000F44073B3F5407F084B08D1AB
:10175800996820F0704221F4F81122F440720A438B
:101768009A60196F000541EA10521A67704700BF66
:1017780000380240014B1860704700BF3C0E4742DA
:10178800014B1860704700BF400E4742014B18607C
:10179800704700BF5C014742054BD3F88C200138E5
:1017A80022F01F0140EA0102C3F88C20704700BFF5
:1017B80000380240054BD3F88C20013822F4F85148
:1017C80041EA0022C3F88C20704700BF003802406D
:1017D800044BD3F88C2022F440110843C3F88C0042
:1017E800704700BF00380240044BD3F88C2022F425
:1017F80040010843C3F88C00704700BF003802401E
:10180800044BD3F88C2022F440310843C3F88C00F1
:10181800704700BF00380240014B1860704700BF96
:10182800E0114742044B1A6B09B1104301E022EA68
:1018380000001863704700BF00380240044B5A6B21
:1018480009B1104301E022EA00005863704700BF65
:1018580000380240044B9A6B09B1104301E022EAB8
:1018680000009863704700BF00380240044B1A6CB0
:1018780009B1104301E022EA00001864704700BF74
:1018880000380240044B5A6C09B1104301E022EAC7
:1018980000005864704700BF00380240044B1A69C2
:1018A80009B1104301E022EA00001861704700BF47
:1018B80000380240044B5A6909B1104301E022EA9A
:1018C80000005861704700BF00380240044B9A6915
:1018D80009B1104301E022EA00009861704700BF97
:1018E80000380240044B1A6A09B1104301E022EAA9
:1018F80000001862704700BF00380240044B5A6A63
:1019080009B1104301E022EA00005862704700BFA5
:1019180000380240044B1A6D09B1104301E022EA75
:1019280000001865704700BF00380240044B5A6D2C
:1019380009B1104301E022EA00005865704700BF72
:1019480000380240044B9A6D09B1104301E022EAC5
:1019580000009865704700BF00380240044B1A6EBB
:1019680009B1104301E022EA00001866704700BF81
:1019780000380240044B5A6E09B1104301E022EAD4
:1019880000005866704700BF00380240044B1A78C0
:1019980009B1104301E022EA00001870704700BF47
:1019A8000D3802404309012B074A01D1136803E0AF
:1019B800022B0CBF136F536F00F01F0023FA00F1C6
:1019C80001F00100704700BF0038024007B500234E
:1019D80001933120FFF7E6FF01994A1C0192019B10
:1019E800B3F5A04F01D00028F3D03120FFF7DAFF7C
:1019F800003018BF01200EBD024B5A6F42F08070B4
:101A08005867704700380240034BD96808420CBF3A
:101A180000200120704700BF00380240014B1870B9
:101A2800704700BF0E38024008B5374B984205D1C1
:101A380001200146FFF732FF01205EE0334988426A
:101A480005D102200121FFF729FF022055E0304A85
:101A5800904205D104200121FFF720FF04204CE02B
:101A68002C4B984205D108200121FFF717FF0820C9
:101A780043E02949884205D110200121FFF70EFFD4
:101A880010203AE0254A904205D120200121FFF795
:101A980005FF202031E0224B984205D1402001214A
:101AA800FFF7FCFE402028E01E49884205D180202F
:101AB8000121FFF7F3FE80201FE01B4A904207D167
:101AC8004FF480700121FFF7E9FE4FF4807014E0B5
:101AD800164B984207D14FF400700121FFF7DEFE44
:101AE8004FF4007009E0124988420BD14FF480602E
:101AF8000121FFF7D3FE4FF480600021BDE80840C4
:101B0800FFF7CCBE08BD00BF000002400004024041
:101B180000080240000C024000100240001402407D
:101B280000180240001C024000200240002402402D
:101B3800002802402DE9F0410F680023012202FA33
:101B480003F202EA0705954232D15A0003240668D7
:101B580004FA02F4E443264006600E79D0F800C087
:101B680006FA02F8013E48EA0C0C012EC0F800C043
:101B780015D8866891F805C02640866086680CFAF4
:101B880002FC4CEA06068660466826EA05054560BA
:101B98008D79466805FA03F5ADB235434560C568E9
:101BA8002C40C460CD79C46805FA02F22243C260B1
:101BB8000133102BC2D1BDE8F08100214FF6FF732D
:101BC8000360017141718171C171704782B04FF436
:101BD80080330193019A41EA02030193019AC26199
:101BE800C1610199C161C3690193C069019002B0E3
:101BF8007047036919420CBF002001207047006933
:101C080080B27047436919420CBF00200120704719
:101C1800406980B2704701837047418370470AB1B9
:101C28000183704741837047416170474369594058
:101C38004161704701F00703C908083130B59B00BE
:101C480050F821500F2404FA03F425EA040440F85C
:101C5800214050F8214002FA03F2144340F8214091
:101C680030BD00BF30B5048C24F001052C04250CD0
:101C78000584048BA5B2048C25F0F3052A43A4B28D
:101C880042EA031324F00A0242F001049DB2214300
:101C98000583018430BD30B5048C24F010052C0474
:101CA800250C0584048B058C24F440742405240D2C
:101CB80044EA0222ADB242EA033325F0A0059AB203
:101CC80045F0100343EA01118DB20283058430BD4B
:101CD80008B5474B984205D101200146FFF70EFE93
:101CE80001203DE0B0F1804F05D101200146FFF70A
:101CF800F9FD012076E03F49884205D10220012103
:101D0800FFF7F0FD02206DE03B4A904205D1042028
:101D18000121FFF7E7FD042064E0384B984205D124
:101D280008200121FFF7DEFD08205BE034498842E6
:101D380005D110200121FFF7D5FD102052E0314ACE
:101D4800904205D120200121FFF7CCFD202049E059
:101D58002D4B984209D102200121FFF7CFFD022027
:101D68000021BDE80840FFF7C9BD2849884207D1CE
:101D78004FF480300121FFF7C1FD4FF48030EFE7C9
:101D8800234A904207D14FF400300121FFF7B6FDF6
:101D98004FF40030E4E71F4B984207D14FF48020FE
:101DA8000121FFF7ABFD4FF48020D9E71A4988429B
:101DB80005D140200121FFF795FD402012E0174A88
:101DC800904205D180200121FFF78CFD802009E099
:101DD800134B98420BD14FF480700121FFF782FD1D
:101DE8004FF480700021BDE80840FFF77BBD08BDB7
:101DF800000001400004004000080040000C0040C2
:101E08000010004000140040000401400040014060
:101E1800004401400048014000180040001C0040F8
:101E2800002000401C4A038890429BB212D002F561
:101E3800806290420ED0B0F1804F0BD0A2F5803274
:101E4800904207D002F58062904203D002F580628A
:101E5800904203D14A8823F0700313430F4A9042FB
:101E680008D002F58062904204D023F440730A89B6
:101E78009BB2134303804B680A88C362064B0285F2
:101E8800984203D003F58062904201D1897A018695
:101E980001238382704700BF00000140001000400A
:101EA80000214FF0FF33436001800181418081723E
:101EB8007047018582827047038823F070021304FB
:101EC8001A0C11430180704741627047C162704724
:101ED800406A7047008D80B27047038819B199B283
:101EE80041F0020303E023F002010A04130C03800B
:101EF8007047038819B199B241F0040303E023F055
:101F080004010A04130C03807047038819B199B2BD
:101F180041F0800303E023F080010A04130C0380DE
:101F28007047038823F0080213041A0C0280038800
:101F38009AB2114301807047038823F44072130456
:101F48001A0C028003889AB21143018070470388F3
:101F580019B199B241F0010303E023F001010A0429
:101F6800130C03807047038C23F0010270B514042E
:101F7800250C0584068C8388028B22F073059CB29D
:101F88002B040D881A0C26F0020633042A434E88C7
:101F98008D8935431B0CADB22B430E4DA84203D09F
:101FA80005F58065A8420ED123F00806CB898D88F7
:101FB8001E4326F004032B434E8A0D8A354324F42E
:101FC8004074ADB22C4389688480028341630384E2
:101FD80070BD00BF00000140038C23F0100230B533
:101FE8001404250C0584038C8288048B24F4E645AC
:101FF8002C040D88240C23F0200344EA05241D0436
:102008002B0C8D8943EA05134D8843EA0513134DBC
:10201800A84292B2A4B29BB203D005F58065A8424B
:1020280015D1CD8923F080039BB243EA05134FF6FF
:10203800BF751D408B8845EA0315ABB20D8A22F4A3
:10204800406242EA85024D8A42EA850292B2896874
:10205800828004838163038430BD00BF0000014097
:10206800038C23F4807230B51404250C0584038C8A
:102078008288848B24F073052C040D88240C23F4A7
:1020880000732C431D042B0C8D8943EA05234D88CE
:1020980043EA0523124DA84292B29BB203D005F53C
:1020A8008065A84215D1CD8923F400639BB243EA29
:1020B80005234FF6FF351D408B8845EA0325ABB253
:1020C8000D8A22F4405242EA05124D8A42EA05126C
:1020D80092B2896882808483C163038430BD00BF63
:1020E80000000140038C23F4805230B51404250C01
:1020F8000584038C8288858B94B225F4E642150406
:102108002A0C0D8823F4005342EA05221D042B0CE7
:102118008D8943EA05334D8843EA05330A4DA842C1
:1021280092B29BB203D005F58065A84205D10D8A0D
:1021380024F4804444EA8514A4B2896884808283A4
:102148000164038430BD00BF000001400023038008
:102158004380838083608381C38103824382704785
:1021680030B5058C0124ADB204FA01F425EA040463
:1021780000F11803048409B1082907D149084FF66A
:102188008F70CC582040C850C8580AE00439C1F3B1
:102198004E0148F6FF70CC582040C8501202C8586B
:1021A80092B20243CA5030BD4163704781637047A1
:1021B800C163704701647047038B23F070021304F6
:1021C8001A0C114301837047038B23F4E042130474
:1021D8001A0C42EA01218BB203837047838B23F0E8
:1021E800700213041A0C114381837047838B23F404
:1021F800E04213041A0C42EA01218BB28383704730
:10220800038B23F0080213041A0C1143018370474F
:10221800038B23F4006213041A0C42EA01218BB2E7
:1022280003837047838B23F0080213041A0C1143AD
:1022380081837047838B23F4006213041A0C42EAEB
:1022480001218BB283837047038B23F004021304AC
:102258001A0C114301837047038B23F48062130423
:102268001A0C42EA01218BB203837047838B23F057
:10227800040213041A0C114381837047838B23F4DF
:10228800806213041A0C42EA01218BB283837047DF
:10229800038B23F0800213041A0C11430183704747
:1022A800038B09025A0441EA52439AB202837047E7
:1022B800838B23F0800213041A0C11438183704727
:1022C800838B09025A0441EA52439AB282837047C7
:1022D800038C23F0020213041A0C11430184704783
:1022E800038C23F0080213041A0C1143018470476D
:1022F800038C23F0200213041A0C42EA01118BB25A
:1023080003847047038C23F0800213041A0C42EAFA
:1023180001118BB203847047038C23F400721304F9
:102328001A0C42EA01218BB203847047038C23F410
:10233800006213041A0C42EA01218BB2038470472D
:10234800038C23F4005213041A0C42EA01318BB2B5
:102358000384704710B5048C012303FA01F3A4B277
:1023680024EA03030384038C02FA01F242EA03011C
:102378008AB2028410BD10B5048C042303FA01F359
:10238800A4B224EA03030384038C02FA01F242EAAA
:1023980003018AB2028410BD002301220380438016
:1023A8008280C38003817047406B7047806B7047A1
:1023B800C06B7047006C7047038B23F00C0213044A
:1023C8001A0C0283038B9AB2114301837047038B63
:1023D80023F4406213041A0C0283038B9AB242EA74
:1023E80001218BB203837047F8B50C464988A2884F
:1023F800B4F800E02389054600290CBF022700270E
:10240800012A14BF01260226BEF1000F11D1FFF7E1
:1024180029FC2846E188FFF7CFFF2846394632468F
:102428002389FFF738FCE1882846BDE8F840FFF724
:10243800CEBFFFF730FC2846E188FFF7C8FF2846E3
:10244800394632462389FFF70DFCE1882846BDE866
:10245800F840FFF7B1BF838B23F00C0213041A0C6A
:102468008283838B9AB2114381837047838B23F4D1
:10247800406213041A0C8283838B9AB242EA0121C8
:102488008BB283837047F8B50D460B88AA884988B4
:10249800044643B92B89FFF7E5FBE9882046BDE8E8
:1024A800F840FFF789BF042B08D12B89FFF7F3FB0E
:1024B800E9882046BDE8F840FFF789BF082BB5F842
:1024C80008C0078C1ED127F480773E04370C078498
:1024D800838B9EB2038C9BB226F0F30623F4206311
:1024E80046EA0C1C43EA01211FFA8CFC8BB243F428
:1024F80080714CEA020282830184E988BDE8F840D1
:10250800FFF7A9BF27F4805633041F0C0784868B76
:10251800038C26F4407623F4005336055B045B0CE9
:10252800360D46EA022243EA013142EA0C328BB206
:1025380043F4805192B282830184E988BDE8F8406F
:10254800FFF794BF4A880B8813438A881343CA88C5
:1025580013430A8913434A89898913430B439BB25E
:10256800A0F8443070470023038043808380C380F1
:102578000381438183817047B0F8443029B16FEA01
:1025880043436FEA53418AB201E059044A0CA0F868
:1025980044207047838819B199B241F0040303E0DD
:1025A80023F004010A04130C83807047838819B14F
:1025B80099B241F0010303E023F001010A04130C6E
:1025C8008380704783899BB20AB1194301E023EAEB
:1025D80001018181704781827047038A19420CBFCB
:1025E800002001207047C9438AB202827047038ADB
:1025F800828911EA030092B203D011420CBF002075
:1026080001207047C9438AB2028270470A43A0F882
:102618004820704783899BB20AB1194301E023EA35
:10262800010181817047838819B199B241F008038B
:1026380003E023F008010A04130C83807047038920
:1026480023F007010A04130C03817047038923F060
:10265800700213041A0C1143018101898BB243F0F3
:1026680007020281704738B50D4611460122602DD8
:10267800044602D1FFF70FFB01E0FFF7F3FA2389C5
:1026880023F0700001040A0C45EA02032381208923
:1026980081B241F00702228138BD038923F070021C
:1026A80013041A0C114301817047838823F07002C8
:1026B80013041A0C828083889AB211438180704770
:1026C800038923F0070213041A0C028103899AB2C2
:1026D800114301817047038923F0800213041A0C07
:1026E800028103899AB211430181704710B50489A8
:1026F800E4B221430A4342EA03239CB2048110BD99
:1027080010B50446FFF7F2FF238998B240F48041E0
:10271800218110BD10B50446FFF7E8FF238923F097
:10272800770001040A0C42F07703238110BD70B5CD
:102738000589048B068C24F44074B6B224F0030493
:1027480026F0220625F00705240432432D04240C24
:102758002D0C44F4807442EA0313294344F0010425
:102768009EB201810483068470BD838819B199B231
:1027780041F0800303E023F080010A04130C8380F6
:102788007047A0F85010704708B5254B984207D1FC
:102798004FF480500121FFF7B1F84FF4805039E031
:1027A8002049884207D14FF480400121FFF79AF869
:1027B8004FF4804009E01C4A90420BD14FF400408E
:1027C8000121FFF78FF84FF400400021BDE80840D1
:1027D800FFF788B8154B984207D14FF400500121F4
:1027E800FFF78CF84FF4005014E01149884207D1E4
:1027F8004FF480100121FFF781F84FF4801009E0B1
:102808000C4A90420BD14FF400100121FFF776F8E3
:102818004FF400100021BDE80840FFF76FB808BD6D
:102828000030014000380040003C004000340140C6
:1028380000500140005401400B88028810B54C88B4
:1028480023438C882343CC8823430C8923434C8916
:1028580023438C892343CC89098A234302F44152B8
:102868001A4393B20380828B22F400631A04130C78
:102878008383018210BD838B23F47B62F0B522F041
:102888000F0425042B0C022483830484828B95B2C5
:102898008A68A24238D02A4B8E889F68002E14BFBF
:1028A800264601263C0203D59C6824F400079F6055
:1028B800D3F88440D3F884705B68DFF888C003F0ED
:1028C8003F03BCFBF3F3C4F388145C43C7F3027300
:1028D800B4FBF3F4CB88B3F5007F4FF00A0301D1C2
:1028E800240A02E07601B4FBF6F46343B3FBF2F288
:1028F800531D9CB20A22B4FBF2F404F00103C4F3A2
:102908004F021C02A3B200E00023941EA4B2FE2CC6
:1029180028BF0023CC8828BF02221A43224393B23F
:102928000A88038445EA02034A8843F40063134390
:102938008A88898913430B439BB28383F0BD00BF08
:102948000038024000127A000023072103804380E8
:102958008380C380038143818381C381018270475F
:1029680000230222038043808380C38082608381A6
:102978007047038819B199B241F0400303E023F08E
:1029880040010A04130C03807047838B19B199B274
:1029980041F4806303E023F480610A04130C838309
:1029A8007047038823F4006213041A0C028003881A
:1029B8009AB2114301807047B1F5804F038803D163
:1029C80099B241F4804303E023F480410A04130CD4
:1029D800038070474FF6FF639942018803D08AB29B
:1029E80042F4807103E021F480721304190C018011
:1029F8007047838819B199B241F0040303E023F0CA
:102A080004010A04130C83807047838819B199B2B2
:102A180041F0100303E023F010010A04130C838033
:102A28007047838B23F47B6210B522F00F042304D4
:102A38001A0C0224828304840C88838BB4F5007FEB
:102A48009AB202D14FF4807302E0002CFAD000232E
:102A58004C8822438C88898942F4006222430A43C5
:102A680092B21343838310BD808980B270478181FD
:102A78007047038819B199B241F4005303E023F475
:102A880000510A04130C03807047038899B241F47B
:102A9800805202807047012914BF008B808A80B25F
:102AA8007047008A80B2704783889BB20AB1194385
:102AB80001E023EA0101818070470909012303FA33
:102AC80001F39BB21AB1828891B20B4303E082886A
:102AD80091B221EA030383807047038919420CBF2E
:102AE800002001207047C9438AB20281704710B59F
:102AF80084880089012301F00F0280B203FA02F2F0
:102B08001040A4B206D0090903FA01F31C420CBF15
:102B18000020012010BD01F00F01012303FA01F389
:102B2800DA4391B201817047044B054800221A60CC
:102B38005A609A60DA605861704700BF003C0140F3
:102B4800FFFF7F00837910B5002B2AD01A4B01684C
:102B58001C68CA4314401C605C6822405A600279B1
:102B680002F1804404F59E32146821431160026822
:102B78009C684079D1430C409C60DC68102801EACD
:102B88000401D96006D1986810439860D9680A434F
:102B9800DA6010BD00F1804303F59E3319680A43DB
:102BA80008E00179006801F1804202F59E331A6855
:102BB80022EA00021A6010BD003C014000230C22EA
:102BC80003600371427183717047024B1A691043A5
:102BD80018617047003C0140034B596908420CBF1B
:102BE80000200120704700BF003C0140014B5861A4
:102BF800704700BF003C0140034B596908420CBFB5
:102C080000200120704700BF003C0140014B586183
:102C1800704700BF003C014008B501214FF48070A7
:102C2800FEF76CFE4FF480700021BDE80840FEF707
:102C380065BE426822F040730A6810B523F48074B8
:102C480044EA02030C7943EA042242600B69CA6829
:102C580084681A438B681A43084B234013434A7904
:102C680043EA42038360097DC26A4B1E22F4700264
:102C7800D9B242EA0152C26210BD00BFFDF7FFC0DF
:102C8800002301210360037143718360C360036102
:102C980001757047074A084B516810B50B4090E81A
:102CA80012000C438168C068214301430B43536001
:102CB80010BD00BF00230140E030FCFF002303608B
:102CC80043608360C3607047836811B143F00101BA
:102CD80001E023F0010181607047436823F440025A
:102CE80022F4007319434160704741628262704761
:102CF800436823F01F02114341607047044B5A6830
:102D080010B142F4000001E022F40000586070475E
:102D180000230140044B5A6810B142F4800001E0DE
:102D280022F480005860704700230140092970B5DB
:102D38000CB20DD904EB4404C6681E3C072505FAFD
:102D480004F526EA050503FA04F32B43C3600CE0F7
:102D580004EB44040669072505FA04F526EA050587
:102D680003FA04F345EA03040461062A0DD805238F
:102D7800013A5A43446B1F2303FA02F324EA03037C
:102D880001FA02F11943416370BD0C2A12B20DD841
:102D980002EB8202046B233A1F2303FA02F324EAAC
:102DA800030301FA02F11943016370BD02EB8202C9
:102DB800C46A413A1F2303FA02F324EA030301FA1F
:102DC80002F11943C16270BD836843F0804181609C
:102DD80070478068C0F380707047836811B143F40E
:102DE800806101E023F4806181607047836811B1DC
:102DF80043F0020101E023F002018160704743685B
:102E0800013923F4604242EA413343607047436822
:102E180011B143F4006101E023F40061416070479F
:102E2800C06C80B27047014B186870470823014096
:102E3800836811B143F4807101E023F480718160EB
:102E48007047836811B143F4007101E023F4007105
:102E580081607047044B5A6810B142F4005001E099
:102E680022F400505860704700230140092970B5CA
:102E78000CB20DD904EB4404C6681E3C072505FABC
:102E880004F526EA050503FA04F32B43C3600CE0B6
:102E980004EB44040669072505FA04F526EA050546
:102EA80003FA04F345EA03040461846BC4F3015391
:102EB800D21A931CDAB202EB82031F2202FA03F23F
:102EC80024EA020401FA03F12143816370BD836B94
:102ED800013923F4401242EA01538363704782B0F8
:102EE800002301930190019809180191019B1A6030
:102EF80002B07047836823F47022114381607047E1
:102F0800836823F44012114381607047836843F457
:102F18008001816070478068C0F3805070474368C3
:102F280011B143F4806101E023F48061416070478E
:102F3800436811B143F4805101E023F480514160AA
:102F4800704782B0002301930190019828304118FE
:102F58000191019A136898B202B070470123C9B26F
:102F680003FA01F143680AB1194301E023EA0101B8
:102F780041607047036819420CBF00200120704768
:102F8800C943016070474368006810EA112007D000
:102F98000122C9B202FA01F018420CBF0020012038
:102FA80070476FEA11210160704700BF08B5012121
:102FB8004FF48040FEF7A2FC4FF480400021BDE8AA
:102FC8000840FEF79BBC014B186070470038014071
:102FD800014B1860704700BF2000274201F0030230
:102FE80089080A4B023130B5920053F821500F245A
:102FF80004FA02F425EA040443F8214053F8214076
:1030080000FA02F0044343F8214030BD0038014083
:10301800014B1860704700BFDC002742014B186065
:10302800704700BF00042742024B186AC0F3002013
:10303800704700BF00380140036823F001010160B8
:103048002D49002221238842026042608260C260CA
:103058000261436117D0294B98421BD02849884206
:1030680020D0284B984225D0274988422AD0274B80
:1030780098422ED02649884232D0264B984236D0E4
:103088002549884203D13D2341F8083C7047234B2A
:10309800984204D14FF4746143F8201C70472049CA
:1030A800884204D14FF4741241F8382C70471D4BF4
:1030B800984204D14FF0746043F8500C70471A4995
:1030C800884203D1194B41F8643C7047184B984229
:1030D80003D1184943F87C1C70471749884203D12B
:1030E800164A41F8942C7047154B984203D14FF07B
:1030F8003D5043F8AC0C7047106002402860024015
:10310800406002405860024070600240886002409F
:10311800A0600240B8600240106402402864024087
:103128004064024058640240706402403D00002040
:1031380088640240400F0020A064024000003D2047
:10314800B86402400268134B10B51340CC680A6893
:1031580014434A6914438A691443CA6914430A6ABE
:1031680014434A6A14438A6A14434A6B14438A6BA9
:103178001443234303604269CB6A22F007040A6BB5
:103188001A43224342610B694A6889684360826036
:10319800C16010BD3F801CF0002303604360836062
:1031A800C360036143618361C361036243628362F5
:1031B800C3620363436383637047036811B143F0D9
:1031C800010101E023F0010101607047036811B1BA
:1031D80043F4004101E023F40041016070470368B3
:1031E80011B143F0200101E023F020010160704794
:1031F80041607047406880B27047036812B143F479
:10320800002201E023F40022026001617047036894
:1032180011B143F4802101E023F48021016070475B
:103228000AB101617047C16070470068C0F3C040CF
:103238007047006800F001007047406900F03800EE
:1032480070470A4B0A4A10B50A4CA0428CBF104678
:1032580018468B004CBF4368036821F0F02121F029
:1032680082121A420CBF0020012010BD00600240EB
:10327800006402400F64024010B5084B084A094C2C
:10328800A0428CBF1046184611F0005F21F0F021D3
:1032980021F0821314BFC360836010BD0060024038
:1032A800006402400F6402400B0611D543694AB11D
:1032B80043F080038029436114D0036801F01E02A3
:1032C8001A430EE023F080028029426104D170473E
:1032D800802907D0002AF0D1036801F01E0123EAF3
:1032E800010202607047124B124A10B5124CA042FC
:1032F8008CBF14461C4621F0F02323F0C3132BB1D6
:10330800006800F01E0202EAD12202E0406900F0E3
:10331800800288004CBF6368236821F0F02121F007
:103328008210184002D0101C18BF012010BD00BF29
:1033380000600240006402400F64024010B5084B70
:10334800084A094CA0428CBF1046184611F0005F8D
:1033580021F0F02121F0821314BFC360836010BDF7
:1033680000600240006402400F64024008B5012179
:103378004FF00050FEF7B6FA4FF000500021BDE8BC
:103388000840FEF7AFBA0B4B30B51A6840F6FE7529
:1033980005FA00F522EA050591E8140014438A6845
:1033A800C96822430A4302FA00F045EA00021A609B
:1033B80030BD00BF00740040002303604360836099
:1033C800C3607047074B012221B1196802FA00F265
:1033D8000A4304E0196802FA00F221EA02021A60BC
:1033E800704700BF00740040074B0009012221B15B
:1033F800596802FA00F20A4304E0596802FA00F236
:1034080021EA02025A60704700740040044B5A686F
:1034180010B142F0030001E022F003005860704749
:1034280000740040054B01FA00F112B1186801431D
:1034380002E01A6822EA010119607047007400402E
:1034480082B0064A002301930192019B08331818A1
:103458000190019A116002B0704700BF00740040EB
:1034680082B0064A002301930192019B1433181875
:103478000190019A116002B0704700BF00740040CB
:103488000828044B0CBF42EA012142EA0141C1501D
:10349800704700BF2074004082B0074900230193A1
:1034A8000191019A2C3202EB90000190019B19685E
:1034B80088B202B0704700BF00740040074B4FF459
:1034C800805221B1196802FA00F20A4304E019682F
:1034D80002FA00F221EA02021A6070470074004002
:1034E800054B01FA00F112B11868014302E01A68AD
:1034F80022EA01011960704700740040044B5A6BBE
:1035080001FA00F111420CBF00200120704700BFF2
:1035180000740040024B01FA00F15963704700BF84
:1035280000740040054B01FA00F11A68586B084016
:1035380003D011420CBF00200120704700740040E6
:10354800024B01FA00F15963704700BF0074004054
:1035580008B5134B984207D14FF400100121FEF72C
:10356800C1F94FF4001014E00E49884207D14FF416
:1035780080000121FEF7B6F94FF4800009E00A4AFD
:1035880090420BD14FF400000121FEF7ABF94FF444
:1035980000000021BDE80840FEF7A4B908BD00BF3F
:1035A8000054004000580040005C0040F0B5868898
:1035B800044685B026F03F000D46010468460E0C0F
:1035C800FEF77AF82C4A0299B1FBF2F087B23E4333
:1035D800A680238823F0010213041A0C22802B688A
:1035E800264A93420AD85B00B1FBF3F0013783B255
:1035F800BFB22784032B98BF042320E0EE884BF644
:10360800FF72964204D103225343B1FBF3F305E062
:1036180019225343B1FBF3F141F4804399B20A05EF
:1036280008BF41F001014FF49672504341F4004342
:103638004FF47A7190FBF1F0421C91B22184A3837C
:10364800228891B241F001032380208820F481620E
:1036580022F002010B04AA886989180C41EA0203C6
:103668002989AA89184380B241EA0203208098B2C6
:10367800208105B0F0BD00BF40420F00A0860100C8
:1036880041F28833002103604BF6FF724FF4804308
:103698008180C2800181418183817047038819B18B
:1036A80099B241F0010303E023F001010A04130C6D
:1036B80003807047838C21B123F0100319040A0C8E
:1036C80002E099B241F0100282847047838C9AB26A
:1036D80001F00F0122F00F0341EA030282847047D0
:1036E800038819B199B241F4807303E023F480711F
:1036F8000A04130C03807047038819B199B241F486
:10370800007303E023F400710A04130C038070476C
:1037180012B141F0010101E001F0FE0101827047A0
:10372800038819B199B241F4806303E023F48061FE
:103738000A04130C0380704783899AB201F0FE01D2
:1037480022F0FE0341EA030282817047838919B19E
:1037580099B241F0010303E023F001010A04130CBC
:1037680083817047038819B199B241F0400303E09F
:1037780023F040010A04130C03807047038829B121
:103788006FEA43436FEA53418AB201E059044A0C95
:1037980002807047038819B999B241F0800303E0A9
:1037A80023F080010A04130C03807047B1F5804FA1
:1037B800838B04D023F4804319040A0C02E099B2E5
:1037C80041F4804282837047B1F5006F038803D1CA
:1037D80099B241F4006303E023F400610A04130C76
:1037E80003807047B1F5005F038803D199B241F4B3
:1037F800005303E023F400510A04130C03807047BC
:10380800038819B199B241F0100303E023F01001C5
:103818000A04130C0380704701827047008AC0B203
:103828007047038819B199B241F4805303E023F437
:1038380080510A04130C03807047B1F5006F0388A8
:1038480003D199B241F4006303E023F400610A0450
:10385800130C03807047038819B199B241F0200313
:1038680003E023F020010A04130C03807047008B47
:10387800C0F307207047838819B199B241F40063F7
:1038880003E023F400610A04130C838070478388E3
:1038980019B199B241F4805303E023F480510A042A
:1038A800130C8380704782B0002301930190019824
:1038B80009180191019A138898B202B07047838859
:1038C8009BB20AB1194301E023EA010181807047E4
:1038D800838A008B9AB242EA00430B4023F07F426E
:1038E800511A484248417047838A008B99B241EA8D
:1038F800004222F07F40704782B00023009301937A
:103908000190080F0090009A21F07F4112B1019BAD
:10391800143302E0019B090C1833019301980268E3
:1039280011420CBF0020012002B07047C9438AB27F
:10393800828270478388808A9AB283B213EA010030
:1039480006D001F0E06112EA11410CBF002001200D
:103958007047C9438AB28282704700BF014BC0B228
:1039680018707047003C0240044B1A6810B142F4CA
:10397800807001E022F4807018607047003C0240BB
:10398800044B1A6810B142F4007001E022F4007090
:1039980018607047003C0240044B1A6810B142F4AA
:1039A800806001E022F4806018607047003C0240AB
:1039B800024B1A6842F4006018607047003C0240ED
:1039C800024B1A6842F4805018607047003C02406D
:1039D800044B1A69002A04DA034800F18831586058
:1039E80059607047003C024023016745024B1A6941
:1039F80042F0004018617047003C0240044B5A698D
:103A0800D20704D5034800F14431986099607047A3
:103A1800003C02403B2A1908024B5A6942F0010057
:103A280058617047003C0240034B1A7802F07F014E
:103A380008431870704700BF173C0240044B1A78BF
:103A480002F0EF0119701A7810431870704700BF20
:103A5800143C0240044B1A7802F0F30119701A78EA
:103A680010431870704700BF143C0240024B58695D
:103A7800C0F34710704700BF003C0240014B188854
:103A880080B27047163C0240014B188880B27047DC
:103A98001A3C0240014B188880B27047163C02401D
:103AA800014B188880B270471A3C0240024B1878C4
:103AB800AA3818BF01207047153C0240024B1878FD
:103AC80000F00C00704700BF143C0240044B1A6918
:103AD80009B1104301E022EA00001861704700BFF5
:103AE800003C0240034BD96808420CBF002001206B
:103AF800704700BF003C0240014BD860704700BFD0
:103B0800003C02400E4BDA68D20310D4D868C006D5
:103B18000FD4D968C9050ED4DA6812F0EF0F0CD1AA
:103B2800DB6813F0020F0CBF092008207047012042
:103B3800704706207047022070470720704700BF73
:103B4800003C024007B509238DF80730FFF7DAFF7C
:103B58008DF807009DF807000128F7D09DF80700A9
:103B68000EBD034B1A7842F002001870FFF7EABF47
:103B7800143C024070B504460D461646FFF7E2FFB6
:103B8800092807D1044B1A7802F00F000443254393
:103B98002E431E7070BD00BF143C024010B5044691
:103BA800FFF7D0FF092804BF014B1C7010BD00BFF0
:103BB800153C024038B504460D46FFF7C3FF0928F7
:103BC80009D1054B1A8815B11443A4B202E090B28A
:103BD80020EA04041C8038BD1A3C024038B504466B
:103BE8000D46FFF7AFFF092809D1054B1A8815B113
:103BF8001443A4B202E090B220EA04041C8038BD49
:103C0800163C024038B504460D46FFF79BFF0928CD
:103C180009D1054B1A881DB190B220EA040401E0CD
:103C28001443A4B21C8038BD1A3C024038B504467F
:103C38000D46FFF787FF092809D1054B1A881DB1E2
:103C480090B220EA040401E01443A4B21C8038BDF9
:103C5800163C024070B505460E46FFF773FF09286B
:103C680011D1094C236923F4407020612169216135
:103C7800226942F0010323612E70FFF763FF216977
:103C880021F00102226170BD003C024070B505467A
:103C98000E46FFF757FF092813D10A4C236923F46E
:103CA80040702061216941F480722261236943F0E8
:103CB800010020612E80FFF745FF216921F00102F4
:103CC800226170BD003C024070B505460E46FFF704
:103CD80039FF092813D10A4C236923F44070206165
:103CE800216941F400722261236943F001002061D7
:103CF8002E60FFF727FF216921F00102226170BDC4
:103D0800003C0240F8B5074614461D46FFF71AFF67
:103D1800092814D10A4E336923F44070306131699F
:103D280041F440723261336943F001003061C7E900
:103D38000045FFF707FF316921F001023261F8BD44
:103D4800003C024010B50446FFF7FCFE44B1012CCC
:103D580008D0022C14BF4FF440734FF4007303E0F3
:103D6800234601E04FF48073092815D10B4C2269D2
:103D780022F44070206121690B432361236943F4D5
:103D880000422261206940F480312161FFF7DAFEA8
:103D9800236923F40042226110BD00BF003C0240A9
:103DA80010B50446FFF7CEFE44B1012C08D0022C12
:103DB80014BF4FF440734FF4007303E0234601E04F
:103DC8004FF48073092815D10B4C226922F44070F6
:103DD800206121690B432361236943F004022261B6
:103DE800206940F480312161FFF7ACFE236923F09C
:103DF8000402226110BD00BF003C024010B5044619
:103E0800FFF7A0FE44B1012C08D0022C14BF4FF4D8
:103E180040734FF4007303E0234601E04FF48073CE
:103E2800092815D10B4C226922F4407020612169C0
:103E38000B432361236943F004022261206940F4A3
:103E480080312161FFF77EFE236923F0040222619D
:103E580010BD00BF003C024070B5064641B10129C3
:103E680008D0022914BF4FF440754FF4007503E0E1
:103E78000D4601E04FF48075FFF764FE09281ED156
:103E88000F4C236923F44070206121690D4325619B
:103E9800226922F0F8032361206940F002010E43F1
:103EA8002661226942F480332361FFF74BFE2169C2
:103EB80021F002022261236923F0F801216170BD1B
:103EC800003C024040F0BF60024B40F40031D96032
:103ED800704700BF00ED00E0C37813B31749CB6803
:103EE8004178DA43C2F30223C3F10402D2B201FAE1
:103EF80002F1CAB20F2141FA03F381780B401A4349
:103F080003781201D1B203F1604202F56143012244
:103F180083F80013007800F01F03410902FA03F048
:103F280007E000780122410900F01F0302FA03F0BC
:103F38002031034B43F82100704700BF00ED00E03B
:103F480000E100E021F0604121F07F02014B1043C5
:103F58009860704700ED00E0044B1A6909B11043FE
:103F680001E022EA00001861704700BF00ED00E0A0
:103F7800044B1A6804280CBF42F0040222F0040221
:103F88001A60704710E000E0D0F8E43510B5044638
:103F980018698047032184F81211002010BD08B564
:103FA800042380F81231D0F8E405C168884700205E
:103FB80008BD08B5D0F8E035D96901B188470020B7
:103FC80008BD08B5D0F8E035196A8847002008BD53
:103FD80008B5D0F8E035596A8847002008BD0021A7
:103FE80010B5402204460B4601F036F880214022E5
:103FF8000023204601F030F8D4F8E405012384F8C2
:1040080012314168A0788847002010BD13B5694671
:10401800044600F02FF99DF8001001F01F03012B52
:104028000CD006D3022B0ED12046694600F058F971
:104038000EE02046694600F0CDF909E020466946C1
:1040480000F0B0F904E0204601F0800101F071F8B9
:1040580000201CBD70B5044600293CD190F81131F0
:10406800022B41D1D0F83421D0F820319A4211D90D
:10407800D21AC0F83421C078012804D1D4F8241108
:10408800CB18C4F824312046D4F8241192B200F099
:10409800A9F829E0D0F83851B5FBF3F603FB16561A
:1040A8005EB99D4209D3D0F83C21954205D23246EB
:1040B80000F098F8C4F83C6116E0D4F8E005C1684F
:1040C80029B194F81231032B01D1204688472046A4
:1040D80000F0BAF808E0D0F8E0355B6923B190F851
:1040E8001221032A00D19847002070BD10B504465C
:1040F80059BB90F81111032930D1D0F88C23D0F88E
:1041080078339A4214D9D21AC0F88C23C07801287F
:1041180004D1D4F87C13C818C4F87C039A4228BF89
:104128001A462046D4F87C1392B200F075F815E0D0
:10413800D0F8E0150B6923B190F81221032A00D1B9
:104148009847204600F071F808E0D0F8E0359B6900
:1041580023B190F81221032A00D19847002010BDFE
:104168002DE9F041069F0446164698460D46FDF790
:104178003FF820462946C4F8E085C4F8E475C4F839
:10418800E86500F025FFD4F8E43518688047204634
:10419800BDE8F041FDF784B800207047D0F8E0355D
:1041A80010B504461A689047D4F8E4058168884732
:1041B800002010BD08B5D0F8E0355A6890470020B7
:1041C80008BD38B504460D46C4F83821C4F8342172
:1041D8001346022280F8112100212A4600F090FFA0
:1041E800002038BD10B50C4613460021224600F0C9
:1041F80087FF002010BD38B504460D46C4F890234B
:10420800C4F88C231346032280F8112100212A4682
:1042180000F05CFF002038BD10B50C4613460021A5
:10422800224600F053FF002010BD0021042310B5E2
:104238000A46044680F811310B4600F061FF20461B
:1042480000F0EBFD002010BD0021052310B50A4643
:10425800044680F811310B4600F038FF204600F084
:10426800DCFD002010BD282303FB0101B1F8880301
:104278007047000090F8C8350B7090F8C9254A704F
:1042880090F8CA3590F8CB2503EB02224A8090F8C3
:10429800CC3590F8CD2503EB02228A8090F8CE35F4
:1042A80090F8CF2503EB022293B2CB800121C0F80E
:1042B8003C3180F81111704710B591F90030002B8E
:1042C800044602DA2046802103E0C9880029F9D093
:1042D800002100F02EFF2046BDE8104000F09DBDF3
:1042E80070B54E788A88012E04460D46D3B211D097
:1042F80029D3032E51D190F81221022A2AD0032A59
:1043080049D14988A9B9A3B1802B12D0194600F028
:1043180010FF0EE090F81221022A1BD0032A3AD18E
:104328004988002939D153B1802B08D0194600F0AB
:104338001EFFD4F8E00529468368204698472046A2
:10434800FFF773FF29E090F81251022D02D0032DD8
:1043580021D106E00BB3802B1FD0194600F0E9FEEF
:104368001BE012F0800F4FF0280006D002F07F0209
:1043780000FB024191F81A3103E000FB034393F874
:104388007233074803B1012303600549204602221E
:10439800FFF717FF01E0FFF78FFF002070BD00BF98
:1043A8000406002038B590F81231032B04460D4658
:1043B8000CD10A79012A09D8D0F8E0359A689047D3
:1043C800E88828B92046FFF730FF01E0FFF774FFBF
:1043D800002038BD73B54B7804460D46092B00F212
:1043E8001881DFE813F0CD0004011601E000160182
:1043F8006E000A001601BD008F004888020A531E8D
:10440800062B00F20681DFE813F007001A002700E8
:104418000401040104010401D4F8E835A0781A68FD
:104428000DF1060190470146E888402803D094F82A
:104438001231012B35D10822ADF8062031E0D4F82D
:10444800E015A0788A6A0DF106019047014602201E
:104458004870C4F8EC1524E0C1B2052900F2D980EF
:10446800DFE801F003070B0F1317D4F8E8355A6893
:1044780012E0D4F8E82592680EE0D4F8E805C2689E
:104488000AE0D4F8E8150A6906E0D4F8E8355A696C
:1044980002E0D4F8E80582690DF10601A07890479A
:1044A8000146BDF80600002800F0B780EA88002A17
:1044B80000F0B380824228BF0246ADF806202046AD
:1044C8006EE08988002940F0A480EB88002B40F03A
:1044D800A0806E8894F8122106F07F00032A064611
:1044E80000F0978084F813013146204600F069FEF9
:1044F8002046FFF79AFE0EB1022100E0012184F860
:1045080012118AE08978464E0129317100F28180C2
:1045180094F81201022802D003287AD108E0002971
:1045280061D00121032384F8101184F8123113E0BB
:1045380041B9022284F8122184F810112046FFF7AD
:1045480039FE50E094F8101101294CD02046FFF7AD
:1045580031FE317984F810112046FFF71FFE42E042
:10456800CA88012A55D194F81211022905D00329C5
:104578004FD1204604F5887112E0204629490FE002
:1045880094F81221901E012843D8D4F81411002958
:104598000CBF01230323224941F80C3F2046012286
:1045A800FFF70FFE39E04888012829D0022834D1C6
:1045B800888810F0FF0F30D12169020A013A4B6850
:1045C800042A0FD8DFE802F0030507090B000120D1
:1045D80006E0022004E0032002E0042000E00520B9
:1045E80060F306134B602046FFF71FFE15E094F8B2
:1045F80012118B1E012B0CD86A88012A0DD10020BC
:10460800D4F8E015C4F814018B6820462946984769
:10461800E9E720462946FFF74FFE00207CBD00BF92
:10462800040600200C06002030B5D0B10023DCB20F
:104638000133C51815F8015C002DF8D1631C5B0027
:10464800138003220B704A700138022310F8012FDF
:104658003AB15C1CCA54E2B2023300248C54DBB277
:10466800F4E730BD37B50023104C0193054603200D
:10467800FCF72AFEE8680269013C019213D001990F
:104688000029F4DA019B43F0010201920199074ADB
:1046980001610369013A019302D00199C907F8D46D
:1046A8000320FCF711FE00203EBD00BF410D0300B2
:1046B80030B5C4786CB900EB82000333D0F8D05021
:1046C8009B1022469A4204D051F8220001322860F9
:1046D800F8E7002030BD10B50332D0F8D040921072
:1046E800002393424FEA830004D0206841F8230056
:1046F8000133F6E7081810BDF0B500230122402465
:104708000129C370827084800CD1022308260422F8
:104718004FF4A0740372C17206704270C4804FF0E7
:10472800A04309E041B90C23C172037006214FF47C
:10473800A065204B4170C58003F500614578016193
:10474800C3600246194600240432AC4201F1200637
:1047580008D201F5106701F5306111655761013420
:104768003146F1E703F5806403F588614461047814
:10477800C0F8CC10002203F5A061A24206D200EBDB
:1047880082050132C5F890102031F6E703F5805113
:104798000022A24207D200EB82050132C5F8D010F0
:1047A80001F58051F5E703F56063C0F80C3100208E
:1047B800F0BD00BF0000044038B5037A0025012B86
:1047C8000446C36825D19A6B407A65F3104208B154
:1047D80042F480129A63D96821F4800020F05002D4
:1047E80042F010016FF3C3016FF3C7116FF351412A
:1047F8006FF3D341D9602046FFF734FFE378012BEC
:1048080040D1052060F34405E26845F02005956035
:1048180038E0DA6842F04001D960FFF723FF207AD8
:10482800617A032814BF4FF480324FF4403242F4C7
:10483800301309B142F47013E06883631420FCF765
:104848004DFDE368217ADA68032908BF42F4803213
:10485800DA60207A032815D11D6B012262F39B656B
:104868006FF3D7552D2145F0805561F316451D632B
:10487800C820FCF733FDE36845F400051D63C82034
:10488800FCF72CFDE178012906D1E368986820F04F
:104898003E0242F02A019960002038BDC3689A6838
:1048A80042F00100986000207047C3689A6822F0BF
:1048B800010098600020704707B500230193019A12
:1048C80042F020030193019A094B61F38A12019285
:1048D800C268019810611169013B019102D00198E9
:1048E8008006F8D40320FCF7EFFC00200EBD00BFC3
:1048F800410D030007B500230193019941F010020F
:104908000192C068019B074A03610169013A01915C
:1049180002D0019BD906F8D40320FCF7D5FC00206F
:104928000EBD00BF410D0300C26808B5D368012958
:104938006FF35D736FF39E7302D143F0005302E08F
:1049480009B943F080433220D360FCF7C7FC00204C
:1049580008BDC368586900F001007047C36858690A
:1049680000F0010181F001007047C368586900F048
:1049780001007047C3685A69986910407047C36856
:104988005868704703691A6861F301021A60704732
:10499800C36800214FF0FF3299615A615A605A6129
:1049A800094A9A61C07888420CBF10220A4642F42C
:1049B800872040F00812986942F4401220EA020069
:1049C80002439A61084670470008008038B5D0F85D
:1049D8000C31016900221A6015460A6865F3CC2279
:1049E8000A60C37A012B04461BD10321FFF7CAFFD3
:1049F800E068C02380214FF4800263F30F05416211
:104A080061F31F4561F30F024FF4A0718262C0F891
:104A1800045161F30F056FF31F45C0F80851C0F842
:104A28000C5110212046FFF747FF2046FFF762FF91
:104A3800206900234FF0FF32036143618261C36143
:104A480061788B4214D204EB8302013390690168C8
:104A5800C1F3076202F08001CAB2002A14BF4FF006
:104A68009041002101600022FF2102618160E7E797
:104A780000236078834214D204EB83000133426D33
:104A88001168C1F3076000F08001C8B2002814BFA4
:104A98004FF09041002111600020FF2110619160CA
:104AA800E7E723691A6942F480711961E0780128FF
:104AB80004D1054A402161F359421A632046FFF7A1
:104AC80067FF002038BD00BF030101000369986833
:104AD800C0F341014B1E022B02D8024AD05C70473A
:104AE80003207047D06D00080369816910B59C6880
:104AF8000A68C4F34100022802D06FF30A0202E0F8
:104B0800032060F30A020A60596841F480725A600F
:104B1800002010BD30B54D780B780022012D00EB38
:104B2800830405D105FA03F5A46965F30F0205E0CE
:104B3800012505FA03F3646D63F31F422368C3F389
:104B4800072505F08005EDB26DB98D6865F30A0398
:104B5800CD78C98865F3934361F3995343F0805343
:104B680043F4004121600069C3691A43C26100200F
:104B780030BD30B54D780B780024012D224600EB6E
:104B8800830105D105FA03F3896963F30F0205E090
:104B9800012505FA03F3496D63F31F4200696FF3BA
:104BA800CF340C60C16921EA0202C261002030BD25
:104BB80070B54E780A78012E0B4600EB820148D179
:104BC8008D695C6929682A6964F3120214B966F36D
:104BD800DC420BE09E68A419013CB4FBF6F6DC78D5
:104BE80066F3DC42012C08BF64F35E722A61C27866
:104BF800012A06D11A7800EB82041A69A469626155
:104C08000CE0DA78012A09D05A693AB102691C78AD
:104C1800556B012606FA04F42C435463DA78012A0A
:104C280007D102699268D20554BF41F0005141F0A2
:104C380080511A7800EB820241F0044192691160B8
:104C4800D978012937D1D9681A789B8AFFF730FDBE
:104C580031E04D6D5E692A689C6829692EB964F354
:104C68001201012464F3DC410AE03619013EB6FB67
:104C7800F4F666F3DC41B605B60D744364F312012D
:104C88002961C178012905D11C7800EB84014C6D9C
:104C980019696161D978012906D1597911B142F0B0
:104CA800005201E042F080521B7800EB830042F092
:104CB8000441426D1160002070BD73B54D78012D1F
:104CC8003DD183694A691E681C690094E4B242B9FF
:104CD80062F306049DF802208DF8004065F3C402D3
:104CE8000EE08D68AA428ABF4D6162F3060465F33F
:104CF80006049DF802208DF80040012464F3C402E4
:104D08008DF80220009A1A61C278012A05D10C7820
:104D180000EB840294690A69626146F004461E60E9
:104D2800C378002B34D14A69002A31D003690A7844
:104D3800586B012101FA02F202435A6328E00B780A
:104D48004E6900EB8302536D8A681D681C690094E4
:104D5800E4B206B14A6162F306049DF802208DF8B8
:104D68000040012464F3C4028DF80220009A1A61FD
:104D7800C378012B05D10A7800EB82035A6D0B69C1
:104D88005361097800EB810045F00445426D1560D8
:104D980000207CBD4B780978012B00EB81000DD1F8
:104DA80080690368C3F3076202F08001CAB20AB1DE
:104DB80043F0804343F40011016004E0436D1A6836
:104DC80042F400111960002070474B78012B0B78D2
:104DD800C97800EB83000CBF8269426D1368881E96
:104DE8006FF35553012898BF43F080531360002098
:104DF800704703699A69D8691040000C704700EB46
:104E0800810102694B6D99685069084070470369D0
:104E18009869D969084080B2704782B0002300932E
:104E2800C021012200238DF8031062F3C403182166
:104E38008DF802308DF80010436D009A1A61C17820
:104E4800012906D100F5B96058611A684FF080222F
:104E58001A6002B07047D0F8143110B50446D3B1C7
:104E680000698268D10716D5A17A41B1D4F80C310E
:104E7800D4F80C216FF341036FF30003136041680A
:104E880041F0010343600520FCF728FA20694268D5
:104E980022F00101416010BD837A63B101698A681B
:104EA800D30708D5D0F80C31D0F80C016FF34103C3
:104EB8006FF3000303607047012310B5002280F8E8
:104EC800123104460346617804338A4206D258698F
:104ED800FF218160186D01328160F4E720690022AA
:104EE8004FF0FF3302614261C26183612046FFF7E0
:104EF80001FD20461021BDE81040FFF7DDBC4B78CE
:104F08000978012B00EB81000FD180690268C2F398
:104F1800074101F02003D8B2C8B901F00202D1B2AA
:104F280000290CBF302020207047426D1368C3F35E
:104F3800074101F02000C2B25AB901F00203D9B208
:104F480000290CBF4FF440504FF400507047102018
:104F580070474FF48050704730B54D78012D0D786B
:104F68000C4600EB85030BD19D69102A2B6803D1F1
:104F7800BDE83040FFF70EBF202A0CD0302A0FE0E2
:104F88005D6DB2F5805F2B6802D143F400131CE01D
:104F9800B2F5005F02D143F0006316E0B2F5405F5E
:104FA80010D1C3F3074202F02002D2B22AB1002383
:104FB8006371BDE83040FFF708BF43F0806040F000
:104FC800802302E00AB962F3CF332B6030BD00BF03
:104FD80010B50446FFF790FB012384F81231002333
:104FE80084F813316278934210D228225A4302F58A
:104FF8008C71621801206354507000214020D380C6
:10500800D1709060D16051610133EBE70023607883
:1050180083420FD22821594301F55C7022180021E0
:1050280023544020D3805170D1709060D160516179
:105038000133ECE72046FFF738FC2046FFF7BCFBBE
:1050480000212046FFF770FC2046FFF7BFFC2046F2
:10505800BDE81040FFF722BC70B5CDB201F07F0467
:105068004FF0280606FB040415F0800F14BF04F562
:105078008C7404F55C7401F07F01ED092170657092
:10508800A260E37005B1E180022B01D100232371F6
:105098002146FFF73FFD002070BD10B5CAB201F0F0
:1050A8007F034FF0280404FB030312F0800F14BFA2
:1050B80003F58C7303F55C7301F07F01D209197055
:1050C8005A701946FFF755FD002010BD38B501F09C
:1050D8007F042825654305F55C75411944554B61E6
:1050E8000023CA608B614B70C378012B08BF0A612B
:1050F80014B9FFF7E2FD01E0FFF75AFD002038BDC3
:10510800F8B501F07F042826664306F58C768119E8
:105118000127CA600A61002205464F7084558A61DA
:105128004B6114B9FFF7C9FD01E0FFF741FD00200D
:10513800F8BDCAB212F0800F10B54FF0280306D0A0
:1051480001F07F0403FB040303F58C7303E003FB06
:10515800010404F55C73D209012401F07F01197080
:105168009C705A701946FFF715FE002010BDCAB290
:1051780012F0800F10B54FF0280306D001F07F041D
:1051880003FB040303F58C7303E003FB010404F53C
:105198005C730024D20901F07F0119709C705A7069
:1051A8001946FFF712FE204610BD08B50B0604D5B8
:1051B80001F07F01FFF780FB01E0FFF79BFB002078
:1051C80008BD0269002361F30A1311680B431360D9
:1051D800704703695A6803206FF341025A60FCF76D
:1051E8007DB803695A6842F0020058600320FCF752
:1051F80075B811F0800F4FF0280306D001F07F0238
:1052080003FB020303F58C7103E003FB010101F5C5
:105218005C71FFF774BE11F0800F4FF0280306D0C1
:1052280001F07F0103FB010303F58C7103E003FB2D
:10523800010101F55C71FFF78FBE00002DE9F74F02
:105248000446FFF78BFB08B9002033E22046FFF73E
:1052580091FB07460028F7D0C0F3074A0AF0080078
:10526800C0B200285DD02046FFF7C3FDA1468046A6
:1052780026464FF0000BB8F1000F51D018F0010F7F
:1052880046D05FFA8BF5294620460195FFF7B7FD12
:1052980010F0010F0546019B20D0726D0125956025
:1052A800E178A94207D11069D9F87823C0F312012F
:1052B800501AC9F8880375490A68204619461268C1
:1052C8009047E378012B09D1BBF1000F06D194F880
:1052D8001101052802D12046FFF79FFD05F00201C4
:1052E800CAB212B1736D02259D6005F00400C1B207
:1052F80011B1726D0425956005F00803D8B238B174
:1053080062490D682046AA689047736D0820986026
:105318000BF1010B4FEA5808043609F12809AAE7EE
:1053280001200AF0040A5FFA8AF3002B00F0B1802A
:105338002046FFF76CFD264681464FF00008B9F17C
:10534800000F00F0A58019F0010F00F099805FFAB6
:1053580088FA236904EB8A0019695D6B826925FA6A
:105368000AF59068EA01D5B20D430540EA071BD556
:10537800586B464A012505FA08F120EA01005863EE
:10538800B36910689D605146436820469847E178A4
:10539800A94209D1B8F1000F06D194F81121042AC5
:1053A80002D12046FFF739FD05F00400C3B213B15E
:1053B800B16904258D6005F00802D0B210B1B36957
:1053C80008259D6005F01001CAB212B1B069102518
:1053D800856005F02003D9B211B1B2692025956026
:1053E80005F04000C3B213B1B16940258D6005F0E6
:1053F8000202D0B210B1B36902259D6025F07F0189
:1054080011F0FF0F3CD0282202FB084000F58C75F4
:105418006969AB69A868CA1AB169824238BF10467F
:1054280000F1030C88694FEA9C0C83B2634524D9C8
:10543800AA696869824220D2F8B1AB68E968C2EB10
:10544800000B9B4528BF9B460BF1030E4FEA9E0CB1
:1054580052461FFA8BF32046CDF804C0FFF728F90F
:10546800EA68A969DDF804C002EB0B0001EB0B0345
:10547800E860AB61B2699069D7E7B5698021A96036
:1054880008F101084FEA5909043658E79C00002042
:105498000120FDB205F00201CAB212B1E36802218F
:1054A8005961C7F3076202F08003D9B2C9B1A07A83
:1054B80040B1D4F80C31D4F80C216FF341036FF3E9
:1054C8000003136021697C4A486820F001034B609F
:1054D800116820468B699847E0684FF000424261A6
:1054E8000120C7F3072808F00801CBB2F3B17248CE
:1054F80002682046516988472369E26898684FF432
:1055080000615161A37A83B1C3070ED5D4F80C01A9
:10551800026842F001010160036843F0030202607F
:105528006648016941F006030361012005F008029D
:10553800D1B241B1604803682046DA689047E16813
:1055480008204861012005F01005EDB2002D35D086
:10555800E668B36923F01002B261366A282006F0C3
:105568000F01C6F3434300FB0145022B05F55C75AB
:105578000DD0062B1CD104F5B96108222046FFF78F
:10558800AAF8AA69C6F30A169119A96110E047F6A4
:10559800F070304060B1C6F30A163246E96820461A
:1055A800FFF799F8EB68A9699A198E19EA60AE6154
:1055B800E068836943F010028261012008F010015D
:1055C800CBB2002B35D026697068002520F0010287
:1055D800726020462946FFF76FF923462A4661780C
:1055E80004338A4206D25E69FF21B160186D013228
:1055F8008160F4E720694FF0FF368661012666F383
:105608000F050F222F2366F31F45C5614261036111
:1056180001686FF30A1101602046FFF7FEFB264B75
:10562800E06819684FF4805242610A692046904741
:10563800304608F020085FFA88F3EBB12046FFF700
:1056480053FAE5682046ED68FFF740FA032806D1CB
:1056580000234FF40070A370A080092204E0012009
:105668004021A070A1800522E16862F38D254FF4E6
:105678000052CD6001204A61C7F3074707F01003C5
:10568800D9B249B10C4802682046D3699847E16805
:105698004FF480104861012007F02007FFB24FB196
:1056A800054A13682046196A8847E0684FF40012D3
:1056B80042610120BDE8FE8F9C00002000ED00E063
:1056C80022230B8000487047CC00002008B58121B8
:1056D800FFF76BFD002008BD10B50C7814F06004CE
:1056E800034624D0202C1BD14A78023A092A19D81B
:1056F800DFE802F011091818181818180C0588782E
:105708001C4908600CE018461A4906E04B881948FD
:105718001A0A426004E0184918460122FEF751FDB2
:10572800002010BD1846FEF7C7FD022010BD4A78BC
:105738000A2A19D00B2A19D0062AF1D14888020A58
:10574800222A05D1CA880D494A2A28BF4A2209E0D7
:10575800212A05D1CA880A49092A28BF092201E055
:10576800214622461846D9E70649D6E78978014BEB
:105778009960D5E71406002018060020EE000020E6
:10578800DE0000201C06002010B581210446FFF72A
:1057980084FC20460121FFF780FC002010BD10B5D5
:1057A8008121044604220323FFF756FC20460121E9
:1057B80004220323FFF750FC002010BD10B5134648
:1057C80090F81221032A0C4603D181212246FFF7C3
:1057D80097FC002010BD00BF70B5234C94E803006F
:1057E800FDF72FFD264600283DD0A568002D2BD0BB
:1057F80030681D4CFDF71DFD0028F9D11B4D94E8BC
:105808000300FDF739FD1A492868A26888604FF639
:10581800FF762068B24294BF0A610E61FDF792FCE0
:1058280020680121FDF7C9FCA1682B68B14238BF87
:105838000E4603EB4600286020688E1B0121A660F7
:10584800BDE87040FDF7B9BC20682946FDF7B5FCF6
:1058580094E80300FDF710FD044B18682946BDE8DD
:105868007040FBF7CBBA70BD64010020B80C002073
:10587800F80C00208B4B4FF4961270B505460E4677
:10588800DA608948874C4FF40031FEF735F828B1C3
:10589800E3685A1EE260002BF3D138E08248012108
:1058A800FDF71EFF4FF48050E0607F487F497D4C34
:1058B800FEF70EF828B9E068411EE1600028F4D12F
:1058C80025E0942178480022FDF722FF4FF480510B
:1058D800E16075487649734CFDF7FAFF28B9E3682B
:1058E8005A1EE260002BF4D111E06F482946FDF7FB
:1058F80093FF4FF48052E2606B486E49694CFDF7A4
:10590800E7FF40B9E068411EE1600028F4D1BDE836
:105918007040FBF7A8BA64483146FDF77DFF4FF4A5
:105928009613E360604864495E4CFDF7E5FF38B9BB
:10593800E3685A1EE260002BF4D1FBF794FAF1E712
:1059480059480121FDF7D8FE4FF49610E0605648FB
:10595800544C4FF40031FDF7CFFF28B1E068411EE9
:10596800E1600028F3D18CE001214F48FDF7B8FE33
:105978004FF48051E1604C484C494A4CFDF7A8FF70
:1059880028B9E3685A1EE260002BF4D179E00022BE
:1059980045489421FDF7BCFE4FF48052E26042482E
:1059A8004349404CFDF794FF28B9E068411EE16087
:1059B8000028F4D165E03C482946FDF72DFF4FF457
:1059C8008053E36038483C49364CFDF795FF28B9C9
:1059D800E3685A1EE260002BF4D152E032480121FC
:1059E800FDF77EFE4FF48050E0602F482F492D4C84
:1059F800FDF76EFF28B9E068411EE1600028F4D188
:105A08003FE02948942101224FF48055FDF780FE9C
:105A1800E560254C2949234D2046FDF76DFF28B93F
:105A2800EB685A1EEA60002BF3D12AE020460021D9
:105A3800FDF776FE01212046238BFDF75DFE4FF42E
:105A48008051E96018481E49164DFDF755FF28B9E1
:105A5800EC68611EE960002CF4D112E01248FDF7F1
:105A6800DDFE4FF480520446EA600F4D2B8803F4A4
:105A7800007081B249B10B4AD368581ED060002B20
:105A8800F3D1FBF7F0F9044607E028460121FDF7BA
:105A980047FE28460B49FDF749FFA01B18BF012008
:105AA80070BD00BF640100200054004001000300E5
:105AB80082000700800007000400001002000010A8
:105AC80040000010000400100420FF21FFF7D2BEA0
